:1000000019C018951895189518951895189518955C
:1000100018951895189518951895C3C018951895A2
:1000200057C01895189518951895189518951895FE
:10003000189518958FEF8DBFC8EDECE84E2E84E033
:100040008EBFD4E0F4E05F2EA89584B7082E877F9A
:1000500084BF88E199278093600090936000EEEF61
:10006000F3E0A0E0B1E088278D933197E9F76624AB
:1000700084E085BD80E084BD80E08093800083E0E3
:100080008093810070916E00716070936E0070912A
:100090006F00716070936F0078948FEF87B98FEF66
:1000A0008AB981E0809308018AEF80931C0180E087
:1000B0008093000186E08093010182E18093020138
:1000C000A9E0B1E0E4EFF4E04CD180E080931B01C3
:1000D0000F921F922F923F924F925F927F92AF9218
:1000E000BF920F931F932F933F934F935F936F9301
:1000F0007F938F939F93AF93BF93CF93DF93EF93B0
:10010000FF938FB78F937CEE76BDA8E0B1E08C9122
:100110008F5F8C9300910801043010F009F001C04A
:1001200003C080E08093080180910801E9E0F1E0DC
:1001300001E00A93AEE0B1E0C8D1A8E0B1E08C9153
:1001400088B994E0AAE1B1E011D100911A010F93AE
:10015000AEE0B1E083D1402F0F91042BAAE1B1E0D2
:100160000C93AAE1B1E08C918BB98F918FBFFF9175
:10017000EF91DF91CF91BF91AF919F918F917F913F
:100180006F915F914F913F912F911F910F91BF9070
:10019000AF907F905F904F903F902F901F900F9067
:1001A00018950F921F922F923F924F925F927F92DB
:1001B000AF92BF920F931F932F933F934F935F93F1
:1001C0006F937F938F939F93AF93BF93CF93DF935F
:1001D000EF93FF938FB78F9385EE99EF9093850000
:1001E00080938400ABE1B1E08C918F5F8C93E9E068
:1001F000F1E0A5E1B1E064D100911B01053081E09F
:1002000009F080E08F9300911B010A3081E009F032
:1002100080E09F91892B882309F400C000911B0185
:10022000093010F009F001C065C080E080931B0127
:10023000A5E1B1E0E1E0F1E0C7D0A5E1B1E054D142
:10024000082F023008F017C086E085D0E5E1F1E024
:10025000A881B98135D1A5E1B1E0EAEFF4E081D020
:10026000E881F981A5E1B1E061D02AD186E0481AA0
:1002700080E0580A2296A0E1B1E0E2E0F1E0A4D0EB
:1002800086E069D0E5E1F1E0A881B98119D1E0E12A
:10029000F1E0A5E1B1E014D1E881F981A5E1B1E097
:1002A00045D00ED186E0481A80E0580A2296A5E192
:1002B000B1E01AD1082F043008F017C086E04BD007
:1002C000E5E1F1E0A881B981FBD0A5E1B1E0EAEF79
:1002D000F4E047D0E881F981A5E1B1E027D0F0D082
:1002E00086E0481A80E0580A2296E5E1F1E0A9E0AC
:1002F000B1E0E6D08F918FBFFF91EF91DF91CF9169
:10030000BF91AF919F918F917F916F915F914F912D
:100310003F912F911F910F91BF90AF907F905F9071
:100320004F903F902F901F900F9018958F938D9125
:100330008823E9F711978F9108953197F1F7089580
:10034000689462F80895E89462F808955A924A927F
:10035000480E591E08955A924A92480E8827581EF0
:1003600008950CD00D920020E1F70895903029F007
:100370008C91880F9A95E9F78C930895C8953196DA
:1003800000200895040F151F261F371F0895000F22
:10039000111F221F331F0895009510952095309549
:1003A0000F5F1F4F2F4F3F4F0895019110810EC0D7
:1003B00001911191219130810BC00191108117FFA2
:1003C00005C03FEF2FEF04C00081112722273327FC
:1003D00037FF03C0E1DF8DE28D93CF93DF93CF92A0
:1003E000DF92EF92AA24BB24CC24DD24EE2440E249
:1003F000CAE0DD2755E093E38881890F87FD9F7070
:1004000083FD907F891B89935A95A9F7C0DFAA1CA9
:10041000BB1CCC1CDD1CEE1C4A9551F7E894EFE0A8
:10042000FF2782910ED0EB30E0F71EF068948A2D02
:100430000CD088278D93EF90DF90CF90DF91CF91F4
:100440000895982F829501D0892F8F70805D26F0B6
:10045000803309F4089568948D9308950027112737
:10046000222733271DD08A3328F4803318F005D093
:1004700015D0F9CF0EF490CF089580538F93402F6D
:10048000512F622F732F83DF82DF7CDF80DF8F911C
:100490009927080F191F291F391F08958D91089555
:1004A000E894FCDF8032E9F38B32D9F38930C9F369
:1004B0008D3211F46894F2CF089588278D930895B2
:1004C00081918D938823E1F7089509919191992362
:1004D00051F08A95D9F7319781918D930A9519F04A
:1004E0008823D1F70895E9CF8FEF83959D919923C4
:0C04F000E1F7089531383036000030008C
:00000001FF
