:1000000019C018951895189562C1189518951895E6
:100010001895189518951895189518951895189578
:100020001895189518951895189518951895189568
:10003000189518958FEF8DBFC8EDECE84E2E84E033
:100040008EBFD4E0F4E05F2EA89584B7082E877F9A
:1000500084BF88E199278093600090936000EEEF61
:10006000F3E0A0E0B1E088278D933197E9F76624AB
:10007000219A229A8AD170916C00716070936C0001
:1000800070916C00726070936C0070916C00746081
:1000900070936C007091680074607093680078943D
:1000A000389839983A988AEF80930901299A2A9AC0
:1000B00080E08093030186E08093040182E18093D5
:1000C000050188EE93E077D1299A2A9A31D0A0E0F1
:1000D000B1E08C9187FB0EF028C00091090100303F
:1000E00009F006C084EF91E066D18AEF80930901A0
:1000F000009109010A3F08F005C0A9E0B1E08C9128
:100100008F5F8C93A0E0B1E08C9186FB882780F90B
:10011000809580FBA0E0B1E08C9186F98C935BD058
:10012000709100017F7770930001D1CFF894FFCFD9
:100130002A988CE08093010181E08093020192E093
:10014000A1E0B1E01BD18FE08093010181E08093B9
:10015000020192E0A1E0B1E011D18FE080930101B2
:1001600080E08093020192E0A1E0B1E007D18AE053
:10017000809301018FE08093020192E0A1E0B1E061
:10018000FDD08BE08093010185E08093020192E035
:10019000A1E0B1E0F3D089E0809301018FE080938A
:1001A000020192E0A1E0B1E0E9D086E08093010194
:1001B00080E08093020192E0A1E0B1E0DFD085E031
:1001C0008093010180E08093020192E0A1E0B1E020
:1001D000D5D02A9A08952A9881E0809301018091D0
:1001E0000501C3D0A2E0B1E08C9394E0A2E0B1E0BD
:1001F000F9D092E0A1E0B1E0C1D082E080930101AA
:1002000080910501B2D0A2E0B1E08C9394E0A2E02D
:10021000B1E0E0D094E0A2E0B1E0E4D092E0A1E06F
:10022000B1E0ACD083E080930101809104019DD0C6
:10023000A2E0B1E08C9394E0A2E0B1E0D3D092E0F0
:10024000A1E0B1E09BD084E08093010180910401A2
:100250008CD0A2E0B1E08C9394E0A2E0B1E0BAD0FF
:1002600094E0A2E0B1E0BED092E0A1E0B1E086D09F
:1002700085E080930101A0E0B1E08C9186FB0EF057
:1002800004C080E68093020103C080E080930201F5
:1002900092E0A1E0B1E072D02A9A089529988AE804
:1002A0008093010180E08093020192E0A1E0B1E03F
:1002B00065D081E090E07FD082E88093010187E003
:1002C0008093020181E090E076D0299A08950F9200
:1002D0001F922F923F924F925F927F92AF92BF9266
:1002E0000F931F932F933F934F935F936F937F933E
:1002F0008F939F93AF93BF93CF93DF93EF93FF932E
:100300008FB78F93309905C070910001706870931A
:100310000001319903C080E0809309018F918FBF64
:10032000FF91EF91DF91CF91BF91AF919F918F910D
:100330007F916F915F914F913F912F911F910F91FD
:10034000BF90AF907F905F904F903F902F901F9005
:100350000F901895982F82958F70805D8D939F7068
:10036000905D9D9388278C9308954AE0082F42D092
:100370000295802B08953197F1F708950DD08D9156
:100380000DD09A95E1F709D00895259A24982C9AD2
:10039000239A80E58CBD0895089508958EBD009040
:1003A0004D0007FEFCCF8EB50895689462F808955D
:1003B000E89462F80895EF93FF93EE27E82BE92B7A
:1003C00031F0EAEFF0E03197F1F70197D1F7FF91C3
:1003D000EF910895903029F08C91880F9A95E9F764
:1003E0008C930895903029F08C9186959A95E9F731
:1003F0008C930895FF93881BF9E0001FFA9511F480
:10040000FF910895881F841B18F4840F8894F5CFFA
:040410000894F3CF8A
:00000001FF
