:1000000019C018951895189559C1189518951895EF
:100010001895189518951895189518951895189578
:100020001895189518951895189518951895189568
:10003000189518958FEF8DBFC8EDECE84E2E84E033
:100040008EBFD4E0F4E05F2EA89584B7082E877F9A
:1000500084BF88E199278093600090936000EEEF61
:10006000F3E0A0E0B1E088278D933197E9F76624AB
:1000700083D170916C00716070936C0070916C0012
:10008000726070936C0070916C00746070936C007F
:10009000709168007460709368007894389839980B
:1000A0003A98219A229A8AEF8093090180E08093FE
:1000B000030186E08093040182E180930501299A7F
:1000C0002A9A31D0A0E0B1E08C9187FB0EF028C0D5
:1000D00000910901003009F006C084EF91E066D17B
:1000E0008AEF80930901009109010A3F08F005C0D9
:1000F000A9E0B1E08C918F5F8C93A0E0B1E08C918E
:1001000086FB882780F9809580FBA0E0B1E08C9188
:1001100086F98C9359D0709100017F77709300011C
:10012000D1CFF894FFCF8CE08093010181E08093E0
:10013000020192E0A1E0B1E018D18FE080930101CB
:1001400081E08093020192E0A1E0B1E00ED18FE066
:100150008093010180E08093020192E0A1E0B1E090
:1001600004D18AE0809301018FE08093020192E044
:10017000A1E0B1E0FAD08BE08093010185E08093AB
:10018000020192E0A1E0B1E0F0D089E080930101AA
:100190008FE08093020192E0A1E0B1E0E6D086E03A
:1001A0008093010180E08093020192E0A1E0B1E040
:1001B000DCD085E08093010180E08093020192E031
:1001C000A1E0B1E0D2D0089581E080930101809157
:1001D0000501C2D0A2E0B1E08C9394E0A2E0B1E0CE
:1001E000FCD092E0A1E0B1E0C0D082E080930101B8
:1001F00080910501B1D0A2E0B1E08C9394E0A2E03F
:10020000B1E0E3D094E0A2E0B1E0E7D092E0A1E079
:10021000B1E0ABD083E080930101809104019CD0D8
:10022000A2E0B1E08C9394E0A2E0B1E0D6D092E0FD
:10023000A1E0B1E09AD084E08093010180910401B3
:100240008BD0A2E0B1E08C9394E0A2E0B1E0BDD00D
:1002500094E0A2E0B1E0C1D092E0A1E0B1E085D0AD
:1002600085E080930101A0E0B1E08C9186FB0EF067
:1002700004C080E68093020103C080E08093020105
:1002800092E0A1E0B1E071D0089529988AE88093C6
:10029000010180E08093020192E0A1E0B1E065D02D
:1002A00081E090E083D082E88093010187E0809331
:1002B000020181E090E07AD0299A08950F921F926E
:1002C0002F923F924F925F927F92AF92BF920F9385
:1002D0001F932F933F934F935F936F937F938F93CE
:1002E0009F93AF93BF93CF93DF93EF93FF938FB71A
:1002F0008F93309905C07091000170687093000170
:10030000319903C080E0809309018F918FBFFF91E5
:10031000EF91DF91CF91BF91AF919F918F917F919D
:100320006F915F914F913F912F911F910F91BF90CE
:10033000AF907F905F904F903F902F901F900F90C5
:100340001895982F82958F70805D8D939F70905D2A
:100350009D9388278C9308954AE0082F46D00295F4
:10036000802B08953197F1F708950FD08D9111D01A
:100370009A95E1F70CD00895259A24982C9A239AFF
:10038000229A2A9A80E58CBD08952A9808952A9A7F
:1003900008958EBD00904D0007FEFCCF8EB50895E8
:1003A000689462F80895E89462F80895EF93FF93D3
:1003B000EE27E82BE92B31F0EAEFF0E03197F1F787
:1003C0000197D1F7FF91EF910895903029F08C912A
:1003D000880F9A95E9F78C930895903029F08C91C5
:1003E00086959A95E9F78C930895FF93881BF9E019
:1003F000001FFA9511F4FF910895881F841B18F4CB
:0A040000840F8894F5CF0894F3CF21
:00000001FF
